:100000000C9489000C94AA000C94AA000C94AA00E9
:100010000C94AA000C94AA000C94AA000C94AA00B8
:100020000C94AA000C94AC000C94AA000C94AA00A6
:100030000C94AA000C94AA000C94AA000C94AA0098
:100040000C94AA000C94AA000C94AA000C94AA0088
:100050000C94AA000C94AA000C94AA000C94970289
:100060000C94AA000C94AA000C94AA000C94AA0068
:100070000C94AA000C94AA000C94AA000C94AA0058
:100080000C94AA000C94AA000C94AA000C94AA0048
:100090000C94AA000C94AA000C94AA000C94AA0038
:1000A0000C94AA000C94AA000C94AA000C94AA0028
:1000B0000C94AA000C94AA000C94AA000C94AA0018
:1000C0000C94AA000C94AA000C94AA000C94AA0008
:1000D0000C94AA000C94AA000C94AA000C94AA00F8
:1000E0000C94AA00084AD73B3BCE016E84BCBFFDEE
:1000F000C12F3D6C74319ABD56833DDA3D00C77FF8
:1001000011BED9E4BB4C3E916BAAAABE0000008090
:100110003F0011241FBECFEFD1E2DEBFCDBF00E014
:100120000CBF1AE0A0E0B2E0E4E7F6E100E00BBFAC
:1001300002C007900D92AC39B107D9F71AE0ACE9CB
:10014000BAE001C01D92A73DB107E1F70E94D107B7
:100150000C94380B0C9400001F920F920FB60F9264
:1001600011240BB60F921BBE0F931F932F933F9337
:100170004F935F936F937F938F939F93AF93BF93AF
:10018000CF93EF93FF93C0B18091A40AC827C0FF1B
:1001900023C080FF17C00E94BC020091A90A1091E1
:1001A000AA0A2091AB0A3091AC0A601B710B820B3A
:1001B000930B6093B90A7093BA0A8093BB0A909329
:1001C000BC0A0AC00E94BC026093A90A7093AA0AE2
:1001D0008093AB0A9093AC0AC1FF25C08091A40A1A
:1001E00081FF17C00E94BC020091A50A1091A60AC7
:1001F0002091A70A3091A80A601B710B820B930B08
:100200006093B10A7093B20A8093B30A9093B40AD0
:100210000AC00E94BC026093A50A7093A60A80934C
:10022000A70A9093A80AC2FF25C08091A40A82FF62
:1002300017C00E94BC020091A00A1091A10A20914F
:10024000A20A3091A30A601B710B820B930B60937F
:10025000CD0A7093CE0A8093CF0A9093D00A0AC039
:100260000E94BC026093A00A7093A10A8093A20A24
:100270009093A30AC3FF25C08091A40A83FF17C0EF
:100280000E94BC020091C50A1091C60A2091C70ABB
:100290003091C80A601B710B820B930B6093AD0AFF
:1002A0007093AE0A8093AF0A9093B00A0AC00E947E
:1002B000BC026093C50A7093C60A8093C70A9093E4
:1002C000C80AC4FF25C08091A40A84FF17C00E94F9
:1002D000BC020091C90A1091CA0A2091CB0A309140
:1002E000CC0A601B710B820B930B6093B50A709361
:1002F000B60A8093B70A9093B80A0AC00E94BC025B
:100300006093C90A7093CA0A8093CB0A9093CC0A6F
:10031000C5FF25C08091A40A85FF17C00E94BC02BA
:100320000091C10A1091C20A2091C30A3091C40AF7
:10033000601B710B820B930B6093BD0A7093BE0A16
:100340008093BF0A9093C00A0AC00E94BC026093C7
:10035000C10A7093C20A8093C30A9093C40A80B101
:100360008093A40AFF91EF91CF91BF91AF919F919C
:100370008F917F916F915F914F913F912F911F913D
:100380000F910F900BBE0F900FBE0F901F901895FE
:10039000E8E6F0E08081816080838FE380936B00EA
:1003A00008950F931F93882351F1CB01885D9B4FD4
:1003B000FC01E41BF50BE21BF30BE00FF11FA8E2BD
:1003C000B4E0A61BB70BBD01641B750B620F731F56
:1003D000600F711F840F951F820F931F800F911F55
:1003E0004A0F5B1F421B530B400F511FE83224E0A2
:1003F000F2075CF0E93928E0F20754F40BC048E258
:1004000054E088E294E068E274E0E8E2F4E002C0DC
:10041000E8E9F8E0683224E072072CF0693928E056
:10042000720724F405C068E274E002C068E978E06D
:10043000883224E092072CF0893928E0920724F4CE
:1004400005C088E294E002C088E998E0483224E0E0
:1004500052072CF0493928E0520724F405C048E23D
:1004600054E002C048E958E020EF25B91092850019
:1004700010928400EE0FFF1F660F771F880F991FE1
:10048000440F551F20C020918400309185002E1705
:100490003F0708F02C9820918400309185002617A2
:1004A000370708F02D982091840030918500281797
:1004B000390708F02E982091840030918500241788
:1004C000350708F02F9825B1207FE9F68FE193E0FA
:1004D0000197F1F700C000001F910F910895CF938D
:1004E000C82F8A3019F48DE00E946F028091C000FD
:1004F00085FFFCCFC093C60080E090E0CF910895C7
:100500001092C50082E28093C400E0ECF0E08081AC
:100510008260808386E08093C20088E18093C1007E
:1005200080E092E09093D40A8093D30A08951F92BA
:100530000F920FB60F9211248F939F93AF93BF9397
:1005400080919C0A90919D0AA0919E0AB0919F0A69
:100550000196A11DB11D80939C0A90939D0AA093C2
:100560009E0AB0939F0ABF91AF919F918F910F9078
:100570000FBE0F901F9018950F931F9386B5009193
:100580009C0A10919D0A20919E0A30919F0A322F59
:10059000212F102F0027080F111D211D311D369509
:1005A000279517950795B801C9011F910F910895D7
:1005B00060919C0A70919D0A80919E0A90919F0A79
:1005C0000E94920920E030E04AEF50E40E94F908CE
:1005D0000E946609089514BC15BC16BC81E0809386
:1005E0006E0085B5826085BD1092800082E08093A8
:1005F000810008951092B9008CE08093B80084E0E7
:100600008093BC00089584EA8093BC008091BC0074
:1006100087FFFCCF089584E98093BC000895809300
:10062000BB0084E88093BC008091BC0087FFFCCFB6
:10063000089584EC8093BC008091BC0087FFFCCFC0
:100640008091BB00089584E88093BC008091BC0039
:1006500087FFFCCF8091BB0008958091B900887F0F
:1006600008951F93CF93DF931F92CDB7DEB7182F56
:1006700069830E940303812F880F0E940F03698101
:10068000862F0E940F030E940303812F880F816031
:100690000E940F030E94230394E99093BC000F90E3
:1006A000DF91CF911F910895CF92DF92EF92FF9249
:1006B0000F931F93CF93DF931F92CDB7DEB7182F01
:1006C0006A01E22E69830E940303812F880F0E9432
:1006D0000F036981862F0E940F030E940303812F5D
:1006E000880F81600E940F038601F12C81E0E81AD7
:1006F000F10805C00E941903F80181938F01C80118
:100700008C199D098E159F05ACF3EC0CFD1C0E9405
:100710002303F701808384E98093BC000F90DF916D
:10072000CF911F910F91FF90EF90DF90CF900895A0
:10073000CF92DF92EF92FF920F931F93CF93DF93AD
:1007400000D01F92CDB7DEB7E22E4B835C836A8365
:1007500089830E9403038981880F0E940F036A81A5
:10076000862F0E940F034B81C42E5C81D52E8601FB
:10077000F12C05C0F80181918F010E940F03C8017F
:100780008C199D098E159F05ACF384E98093BC00FC
:100790000F900F900F900F90DF91CF911F910F91BD
:1007A000FF90EF90DF90CF900895CF93DF931F924B
:1007B000CDB7DEB7498321E0AE014F5F5F4F0E94A6
:1007C00098030F90DF91CF9108951F93CF93DF93FC
:1007D0001F921F92CDB7DEB7162F88E62A83498372
:1007E0000E9431032A814981222349F021E030E02F
:1007F00001C0220F4A95EAF7482F422B09C021E099
:1008000030E001C0220F4A95EAF7422F4095482375
:10081000612F88E60F900F90DF91CF911F910C947C
:10082000D50365E788E60C943103CF93DF9362E745
:1008300088E60E943103D82F80E0C82F63E788E65E
:100840000E943103C82BCE01DF91CF9108956AE356
:1008500088E60E94310390E0089521E042E06AE6D4
:1008600088E60C94E503482F4F716DE688E60C94FA
:10087000D503482F6EE688E60C94D5030F931F939B
:10088000CF93DF93C0E0D0E009E88D2F0E943304BE
:100890008C2F0E943904CA3787E0D8071CF0102F2C
:1008A0001C1B01C010E1AE0143505D4F212F6FE6CC
:1008B00088E60E949803C10FD11DC93887E0D80788
:1008C00024F3DF91CF911F910F9108958F929F9202
:1008D000BF92CF92DF92EF92FF920F931F93CF932D
:1008E000DF931F92CDB7DEB77C01812C912CC62EF1
:1008F000D12C22C0F701E80DF91D8081B180228141
:10090000022F10E00115110589F029830E9433049C
:100910008B2D0E943904A4014D5F5F4F4E0D5F1D6A
:1009200029816FE688E60E94980302C001E010E08A
:100930000D5F1F4F800E911E8C149D04DCF20F90F2
:10094000DF91CF911F910F91FF90EF90DF90CF90AB
:10095000BF909F908F9008956BE688E60E943103C8
:10096000482F43606BE688E60C94D50321E047E00E
:100970006BE688E60E94E5032FEF86E791E02150C1
:1009800080409040E1F700C0000020E046E06BE6C8
:1009900088E60E94E5034FE765E288E60E94D503FA
:1009A00020E045E06AE688E60E94E50348E665E265
:1009B00088E60E94D50321E041E06AE688E60E94CD
:1009C000E5030E943E0460EC8DE392E00E94660421
:1009D00042E368E388E60E94D5030E94AC0442E14A
:1009E00068E388E60E94D50344E069E188E60E9456
:1009F000D5034BE069E188E60E94D50348E16BE14D
:100A000088E60E94D50343E060E788E60E94D503AC
:100A100040E061E788E60E94D50320E040E060E026
:100A200088E60E94E5036FE28EE092E00E94660491
:100A30000E942D0421E046E06AE688E60E94E50374
:100A400021E047E06AE688E60E94E50321E043E012
:100A50006AE688E60C94E503CF92DF92EF92FF926C
:100A60000F931F93CF93DF9300D000D0CDB7DEB7A5
:100A70008C016B017A0126E0AE014F5F5F4F63E4AA
:100A800088E60E9454038A812981332727FD309507
:100A9000322F2227282BF801318320832C818B8150
:100AA000992787FD9095982F8827822BF6019183AF
:100AB00080832E818D81992787FD9095982F882797
:100AC000822BF7019183808326960FB6F894DEBFC0
:100AD0000FBECDBFDF91CF911F910F91FF90EF908F
:100AE000DF90CF9008952F923F924F925F926F9236
:100AF0007F928F929F92AF92BF92CF92DF92EF92AE
:100B0000FF920F931F93CF93DF93CDB7DEB7C754F8
:100B1000D1090FB6F894DEBF0FBECDBF24969FAFAC
:100B20008EAF249726967FAF6EAF269728965FAF3D
:100B30004EAF28970E942704F82E0E9415048C01BE
:100B4000F4FC04C0011584E0180739F486E89AE043
:100B50000E94090B0E942D040AC2F1FC04C007C2C6
:100B60000E9415048C010A321105D4F32AE2AE0169
:100B70004F5F5F4F64E788E60E9454030A521109F1
:100B80000A3211059CF76981772767FD7095762FEA
:100B900066278A81680F711D87FD7A95882777FD02
:100BA0008095982F0E94940920E030E040E858E3B7
:100BB0000E944C0A6B017C016D81772767FD70955F
:100BC000762F66278E81680F711D87FD7A9588279D
:100BD00077FD8095982F0E94940920E030E040E84E
:100BE00058E30E944C0A5B018C016985772767FDF9
:100BF0007095762F66278A85680F711D87FD7A9517
:100C0000882777FD8095982F0E94940920E030E096
:100C100040E858E30E944C0A6BA77FA788AB292EB7
:100C20006D85772767FD7095762F66278E85680F0F
:100C3000711D87FD7A95882777FD8095982F0E94F2
:100C4000940920E030E040E858E30E944C0A362E38
:100C5000872E982E99AB762F89A9272F382D492DCD
:100C6000582F6A2D7B2D802F912F0E944C0A2B012B
:100C70003C017BA56FA598A9272F362F492F522D10
:100C80006C2D7D2D8E2D9F2D0E944C0A9B01AC0159
:100C9000C301B2010E9432089B01AC010E943308DB
:100CA0006AAB7BAB8CAB9DAB2A2D3B2D402F512FDC
:100CB0006C2D7D2D8E2D9F2D0E944C0A2B013C0109
:100CC00089A9232D382D492D582FBBA5AFA5F8A9EB
:100CD0006B2F7A2F8F2F922D0E944C0A9B01AC0113
:100CE000C301B2010E9433089B01AC010E9433088A
:100CF0006EAB7FAB88AF99AF2C2D3D2D4E2D5F2D68
:100D00006C2D7D2D8E2D9F2D0E944C0A2B013C01B8
:100D10002A2D3B2D402F512F6A2D7B2D802F912F77
:100D20000E944C0A9B01AC01C301B2010E9432082F
:100D30002B013C017BA56FA598A9272F362F492FA2
:100D4000522DDB016B2F7A2F892F922D0E944C0A96
:100D50009B01AC01C301B2010E9432082B013C018E
:100D600089A9232D382D492D582F632D782D892DB4
:100D7000952F0E944C0A9B01AC01C301B2010E9455
:100D80003308762E7AAF8BAF9CAF2C2D3D2D4E2D98
:100D90005F2D6C2D7D2D8E2D9F2D0E9433086DAF04
:100DA000472E582E692E2A2D3B2D402F512F6A2D6C
:100DB0007B2D802F912F0E9433086EAF7FAF21963D
:100DC0008FAF219722969FAF22972C2D3D2D4E2D30
:100DD0005F2DBDAD6B2F742D852D962D0E944C0A75
:100DE0006B017C012A2D3B2D402F512FBEADAFADA5
:100DF0002196FFAD21972296EFAD22976B2F7A2F88
:100E00008F2F9E2F0E944C0A9B01AC01C701B60197
:100E10000E94330820E030E040E85FE30E9432089F
:100E20006B017C017BA56FA598A9272F362F492F31
:100E3000522DBEADAFAD2196FFAD21972296EFADFD
:100E400022976B2F7A2F8F2F9E2F0E944C0A6BA711
:100E50007CA78DA79EA789A9232D382D492D582F12
:100E6000BDAD6B2F742D852D962D0E944C0A9B01D4
:100E7000AC016BA57CA58DA59EA50E943208A7019B
:100E800096010E94A6082496EEADFFAD24976083DC
:100E90007183828393836AAD9BAD8CAD272D362FF2
:100EA000492F582FFC01672D732F8F2F9E2F0E94E3
:100EB0004C0A7B018C017EA96FA998AD89AD272FC3
:100EC000362F492F582FDB01FC016B2F7A2F8F2FE4
:100ED0009E2F0E944C0A2E2D3F2D402F512F0E94F5
:100EE00033080E94B30A9B01AC01BAA9ABA9FCA9C3
:100EF000EDA96B2F7A2F8F2F9E2F0E94F9080E9449
:100F0000D1082696EEADFFAD26976083718382836C
:100F100093837AA96BA99CA98DA9272F362F492FD6
:100F2000582FDB01FC016B2F7A2F8F2F9E2F0E94F1
:100F30004C0A2E2D3F2D402F512F0E9433080E9426
:100F4000B30A9B01AC01BEA9AFA9F8ADE9AD6B2F07
:100F50007A2F8F2F9E2F0E94F9080E94D108289681
:100F6000EEADFFAD28976083718382839383C95B65
:100F7000DF4F0FB6F894DEBF0FBECDBFDF91CF912C
:100F80001F910F91FF90EF90DF90CF90BF90AF90A7
:100F90009F908F907F906F905F904F903F902F9099
:100FA0000895CF93DF93CDB7DEB762970FB6F8946D
:100FB000DEBF0FBECDBFF89411B880EF8AB912B86A
:100FC0001BB80E94EB020E94C8010E9480020E948E
:100FD000FA0278940E94B604AE014F5F5F4FBE01E3
:100FE0006B5F7F4FCE0109960E947305AE01435F90
:100FF0005F4FBE01615F7F4FCE0141960E942C057D
:101000006091CD0A7091CE0A8091CF0A9091D00A5A
:101010000E94920920E030E040E05FE30E944C0A29
:1010200020E030E048E453E40E9433080E94610964
:101030008B01E1E08091B50A9091B60AA091B70AC0
:10104000B091B80A8D3D9540A105B10508F4E0E0E6
:1010500020E030E040E050E060E070E08E2F0E9441
:10106000D101BACF5058BB27AA270ED0D4C1C5D1C1
:1010700030F0CAD120F031F49F3F11F41EF495C135
:101080000EF4E095E7FB8BC1E92FD6D180F3BA17B8
:10109000620773078407950718F071F49EF5EEC197
:1010A0000EF4E0950B2EBA2FA02D0B01B901900183
:1010B0000C01CA01A0011124FF27591B99F0593FC7
:1010C00050F4503E68F11A16F040A22F232F342F0F
:1010D0004427585FF3CF469537952795A795F0405D
:1010E0005395C9F77EF41F16BA0B620B730B840B72
:1010F000BAF09150A1F0FF0FBB1F661F771F881F2A
:10110000C2F70EC0BA0F621F731F841F48F4879581
:1011100077956795B795F7959E3F08F0B3CF939570
:10112000880F08F09927EE0F97958795089565D158
:1011300058F080E891E009F49EEF66D128F040E88D
:1011400051E059F45EEF09C030C198C1E92FE07851
:1011500073D168F3092E052AC1F32617370748070C
:10116000590738F00E2E07F8E02569F0E025E06415
:101170000AC0EF6307F8009407FADB01B9019D018B
:10118000DC01CA01AD01EF9343D045D10AD05F9194
:10119000552331F02BED3FE049E450FD49EC63CF9E
:1011A0000895DF93DD27B92FBF7740E85FE3161678
:1011B000170648075B0710F4D92F67D19F938F93C9
:1011C0007F936F930ED2E4EEF0E0F2D024D12F9112
:1011D0003F914F915F916CD1DD2349F09058A2EA85
:1011E0002AED3FE049EC5FE3D0785D274DDFDF91EA
:1011F00012C10CD010C108D140F0FFD030F021F462
:101200005F3F19F0CCC051113AC1CFC015D198F34E
:101210009923C9F35523B1F3951B550BBB27AA2777
:1012200062177307840738F09F5F5F4F220F331FE9
:10123000441FAA1FA9F333D00E2E3AF0E0E830D0B5
:1012400091505040E695001CCAF729D0FE2F27D0B8
:10125000660F771F881FBB1F261737074807AB0786
:10126000B0E809F0BB0B802DBF01FF2793585F4FFB
:101270002AF09E3F510568F092C001C15F3FECF338
:10128000983EDCF3869577956795B795F7959F5FC0
:10129000C9F7880F911D9695879597F90895E1E014
:1012A000660F771F881FBB1F621773078407BA0773
:1012B00020F0621B730B840BBA0BEE1F88F7E095CE
:1012C000089504D06894B111DAC00895BDD088F0B3
:1012D0009F5790F0B92F9927B751A0F0D1F0660F22
:1012E000771F881F991F1AF0BA95C9F712C0B1303D
:1012F00081F0C4D0B1E00895C1C0672F782F88274E
:10130000B85F39F0B93FCCF3869577956795B3957B
:10131000D9F73EF490958095709561957F4F8F4FEA
:101320009F4F0895E89409C097FB3EF490958095EF
:10133000709561957F4F8F4F9F4F9923A9F0F92F9B
:1013400096E9BB279395F695879577956795B79519
:10135000F111F8CFFAF4BB0F11F460FF1BC06F5FFF
:101360007F4F8F4F9F4F16C0882311F096E911C011
:10137000772321F09EE8872F762F05C0662371F032
:1013800096E8862F70E060E02AF09A95660F771F46
:10139000881FDAF7880F9695879597F9089597F93A
:1013A0009F6780E870E060E008959FEF80EC08950B
:1013B000DF93CF931F930F93FF92EF92DF927B0106
:1013C0008C01689405C0DA2EEF0172D0FE01E8941A
:1013D000A5912591359145915591AEF3EF0154DEDC
:1013E000FE019701A801DA9479F7DF90EF90FF9062
:1013F0000F911F91CF91DF91089500240A94161642
:10140000170618060906089500240A9412161306F2
:10141000140605060895092E0394000C11F4882380
:1014200052F0BB0F40F4BF2B11F460FF04C06F5F9C
:101430007F4F8F4F9F4F089557FD9058440F551F72
:1014400059F05F3F71F04795880F97FB991F61F046
:101450009F3F79F087950895121613061406551FBD
:10146000F2CF4695F1DF08C0161617061806991F29
:10147000F1CF86957105610508940895E894BB271E
:1014800066277727CB0197F908959B01AC0160E0AF
:1014900070E080E89FE3ADCE0BD0BDCFAEDF28F08B
:1014A000B3DF18F0952309F07ACF7FCF1124E7CF6F
:1014B000C3DFA0F3959FD1F3950F50E0551F629FB6
:1014C000F001729FBB27F00DB11D639FAA27F00D9D
:1014D000B11DAA1F649F6627B00DA11D661F829FC4
:1014E0002227B00DA11D621F739FB00DA11D621FA9
:1014F000839FA00D611D221F749F3327A00D611DC6
:10150000231F849F600D211D822F762F6A2F1124A7
:101510009F5750408AF0E1F088234AF0EE0FFF1FFA
:10152000BB1F661F771F881F91505040A9F79E3F31
:10153000510570F034CFA3CF5F3FECF3983EDCF35E
:10154000869577956795B795F795E7959F5FC1F76E
:10155000FE2B880F911D9695879597F9089511F4A4
:101560000EF423CF41C070DFD0F39923D9F3CEF32B
:101570009F57550B87FF46D00024A0E640EA900114
:1015800080585695979528F4805C660F771F881FC2
:1015900020F026173707480730F4621B730B840BC3
:1015A000202931294A2BA695179407942025312507
:1015B0004A2758F7660F771F881F20F0261737072E
:1015C000480730F4620B730B840B200D311D411D55
:1015D000A09581F7B901842F9158880F969587952A
:1015E00008959B01AC0158CF9F3F31F0915020F4FA
:1015F000879577956795B795880F911D96958795EF
:1016000097F9089591505040660F771F881FD2F7C1
:1016100008950F931F93CF93DF938C01E091D30A2A
:10162000F091D40A838181FF1BC0C0E0D0E005C0E7
:101630001995892B11F0CFEFDFEFF80181918F0120
:101640006091D30A7091D40ADB011896ED91FC9158
:1016500019978111EDCF8AE01995892B09F402C001
:10166000CFEFDFEFCE01DF91CF911F910F91089562
:04167000F894FFCF1C
:1016740000000002000000006F020000000001B240
:1016840002FFFF0190040923A135016A020600014B
:10169400600800000000000000000060044000003A
:1016A40000016202000000600400400000037B03AC
:1016B4004CCD6C03AB0336567600680402CB47A2CC
:1016C40002180400058BC1010C0400000000037F14
:1016D400060CC92C979797038903264666006C026B
:1016E4002000024004000000000244040000000046
:1016F40002480400000000024C04000000000250F4
:101704000400000000025404000000000258040019
:10171400000000025C040000000002BC04000000A1
:101724000001EC0400004000037F060CC92C9797CD
:10173400970402030D355D040904872D353D00A38C
:10174400010000000001078601FE074105F1202881
:101754003038077E01300746019A074704F12830E4
:1017640038076C04F12830380216020009FB000027
:101774003E000B003600010002000300000065007B
:1017840054FFEF0000FA80000B12820001000200F7
:10179400000000000000000000000000000028001D
:1017A40000FFFF4581FFFFFA720000000000000304
:1017B400E80000000100017FFFFFFE8001001B0024
:1017C40000000000000000000000000000003E03D4
:1017D400304000000002CAE3093E800000200000FF
:1017E4000000000000400000006000000041FF0015
:1017F4000000000B2A0000165500002182FD8726F8
:1018040050FD800000001F00000005800000000063
:10181400000001000000020000000300004000007E
:10182400000000046F0002653200005EC04000004A
:1018340000000000000000000000000000FB8C6FAE
:101844005DFD5D08D9007C733B006C12CC32001343
:101854009D3200D0D632000800400001F4FFE6803B
:1018640079020000000000D0D600002710FB000021
:101874000040000000000000000000000000000024
:10188400010000000000000100010000000000FA57
:1018940036FFBC308E0005FBF0FFD95BC8FFD09A41
:1018A400BE000010A9FFF41EB200CEBBF70000007A
:1018B4000100000004000200020200000CFFC280CC
:1018C400000001800000CF80004000000000000004
:1018D40001000000000000060000000014000000E9
:1018E40000000000000000000000000000000000F4
:1018F40000000000000000000000000000000000E4
:1019040000000000000000000000000000000000D3
:1019140000033F68B6793528BCC67ED16C800000D0
:1019240000400000000000B26A0000000000000057
:10193400000000000000003FF00000003000000044
:101944000000000000000000000000000000000093
:10195400000000000000000000000000000000255E
:101964004D002F706D000005AE000C02D000000089
:101974000000650054FFEF000000000000000001BB
:10198400000044000000000C000000010000000002
:10199400000065000000540000FFEF00000000009C
:1019A40000000000000000000000000000400000F3
:1019B40000000000000000000000000000400000E3
:1019C4000000000000000000000000000000000013
:1019D4000100000002000000000000000000000000
:1019E40000000000000000000000000000000000F3
:1019F40000000000000000000000000000001B00C8
:101A040000000000000000000000000000000000D2
:101A140000000000000000000000000000000000C2
:101A240000000000000000000040000000001B0057
:101A340000000000000000000000000000000000A2
:101A44000000000000000000000000000000000092
:101A54000000000000000000000000000000000082
:101A640000000000000000000000000000D8DCBA04
:101A7400A2F1DEB2B8B4A88191F74A907F916AF3DB
:101A8400F9DBA8F9B0BAA080F2CE81F3C2F1C1F2B9
:101A9400C3F3CCA2B280F1C6D880BAA7DFDFDFF2ED
:101AA400A7C3CBC5B6F087A2942448703C95406880
:101AB40034589B78A2F183922D557DD8B1B4B8A146
:101AC400D09180F270F370F27C80A8F101B0988715
:101AD400D943D886C988BAA1F20EB89780F1A9DF94
:101AE400DFDFAADFDFDFF2AAC5CDC7A90CC92C97B7
:101AF400979797F1A989264666B0B4BA80ACDEF20E
:101B0400CAF1B28C02A9B69800890E161EB8A9B4FF
:101B1400992C547CB08AA896365676F1B9AFB4B0F5
:101B240083C0B8A89711B18F98B9AFF024084410B6
:101B34006418F1A329557DAF83B593AFF000285005
:101B4400F1A3869F61A6DADEDFD9FAA38696DB319C
:101B5400A6D9F8DFBAA68FC2C5C7B28CC1B8A2DFB6
:101B6400DFDFA3DFDFDFD8D8F1B8A8B286B4980DE1
:101B7400355DB8AA98B0872D353DB2B6BAAF8C960C
:101B8400198F9FA70E161EB49AB8AA872C547CB935
:101B9400A3DEDFDFA3B180F2C4CDC9F1B8A9B49943
:101BA400830D355D89B9A32D557DB593A30E161EFE
:101BB400A92C547CB8B4B0F19783A81184A50998D2
:101BC400A383F0DA240844106418D8F1A529557DBC
:101BD400A58595021A2E3A565A4048F9F3A3D9F826
:101BE400F098832408441064189782A8F111F0989F
:101BF400A2240844106418DAF3DED883A59401D92A
:101C0400A302F1A2C3C5C7D8F18492A24DDA2AD89F
:101C14004869D92AD86855DA32D85071D932D8707F
:101C24005DDA3AD85879D93AD87893A34DDA2AD8D4
:101C34004869D92AD86855DA32D85071D932D8705F
:101C44005DDA3AD85879D93AD878A88A9AF02850DF
:101C5400789EF38818F19F1D98A8D908D8C89F12B8
:101C64009EF315A8DA1210D8F1AFC8978734B5B926
:101C740094A421F3D922D8F22DF3D92AD8F235F33A
:101C8400D932D881A4606061D961D86C6869D96996
:101C9400D8747071D971D8B1A384193D5DA3831A26
:101CA4003E5E931030811011B8B0AF8F94F2DA3EDB
:101CB400D8B49AA88729DAF8D8879A35DAF8D88771
:101CC4009A3DDAF8D8B1B9A49885022E56A58100B8
:101CD4000C14A397B08AF12DD928D84DD948D86DC2
:101CE400D968D8B1840DDA0ED8A32983DA2C0ED89A
:101CF400A3844983DA2C4C0ED8B8B0A88A9AF5206C
:101D0400AADADFD8A840AAD0DADED8A860AADAD046
:101D1400DFD8F19786A8319B069907AB9728889B53
:101D2400F00C201440B8B0B4A88C9CF0042851796D
:101D34001D301438B282ABD0982C505078789BF177
:101D44001AB0F08A9CA82951798B2951798A247078
:101D5400598B2058718A4469388B3940688A6448A1
:101D6400318B304960A58820097158446811396461
:101D7400493019F1AC002C547CF08CA8042850781C
:101D8400F1889726A85998AC8C02264666F0899C5F
:101D9400A8295179247059446938644831A98809BB
:101DA400205970AB11384069A8193148608CA83C9F
:101DB400415C207C00F187981986A86E767EA999EB
:101DC400882D557D9EB9A38A228A6E8A568A5E9F83
:101DD400B183062646660E2E4E6E9DB8AD002C5479
:101DE4007CF2B18CB499B9A32D557D8191AC38ADF9
:101DF4003AB58391AC2DD928D84DD948D86DD96836
:101E0400D88C9DAE29D904AED851D904AED879D98D
:101E140004D881F39DAD008DAE1981ADD901D8F2FE
:101E2400AEDA26D88E912983A7D9ADADADADF32A0C
:101E3400D8D8F1B0AC89913E5E76F3AC2E2EF1B1D8
:101E44008C5A9CAC2C2828289CAC3018A898812843
:101E5400343C9724A728343C9C24F2B089AC912CC0
:101E64004C6C8A9B2DD9D8D851D9D8D879D9D8D8FF
:101E7400F19E88A331DAD8D8912DD928D84DD948E4
:101E8400D86DD968D8B18393353D8025DAD8D88503
:101E940069DAD8D8B49381A328343CF3AB8BF8A384
:101EA40091B609B4D9ABDEFAB0879CB9A3DDF1A32E
:101EB400A3A3A395F1A3A3A39DF1A3A3A3A3F2A317
:101EC400B49080F2A3A3A3A3A3A3A3A3A3A3B2A3A5
:101ED400A3A3A3A3A3B087B599F1A3A3A398F1A344
:101EE400A3A3A397A3A3A3A3F39BA3A3DCB9A7F1E1
:101EF400262626D8D8FF4649464F20627566666571
:0C1F040072206F766572666C6F772100AA
:00000001FF
